{
  "_format": "hh-sol-artifact-1",
  "contractName": "SimplePay",
  "sourceName": "contracts/SimplePay.sol",
  "abi": [
    {
      "inputs": [],
      "stateMutability": "nonpayable",
      "type": "constructor"
    },
    {
      "anonymous": false,
      "inputs": [
        {
          "indexed": true,
          "internalType": "bytes32",
          "name": "paymentId",
          "type": "bytes32"
        }
      ],
      "name": "PaymentCompleted",
      "type": "event"
    },
    {
      "anonymous": false,
      "inputs": [
        {
          "indexed": true,
          "internalType": "bytes32",
          "name": "paymentId",
          "type": "bytes32"
        },
        {
          "indexed": true,
          "internalType": "address",
          "name": "sender",
          "type": "address"
        },
        {
          "indexed": true,
          "internalType": "address",
          "name": "recipient",
          "type": "address"
        },
        {
          "indexed": false,
          "internalType": "uint256",
          "name": "amount",
          "type": "uint256"
        },
        {
          "indexed": false,
          "internalType": "string",
          "name": "tokenSymbol",
          "type": "string"
        }
      ],
      "name": "PaymentCreated",
      "type": "event"
    },
    {
      "anonymous": false,
      "inputs": [
        {
          "indexed": true,
          "internalType": "address",
          "name": "user",
          "type": "address"
        },
        {
          "indexed": false,
          "internalType": "string",
          "name": "name",
          "type": "string"
        }
      ],
      "name": "UserRegistered",
      "type": "event"
    },
    {
      "inputs": [
        {
          "internalType": "uint256",
          "name": "",
          "type": "uint256"
        }
      ],
      "name": "allPayments",
      "outputs": [
        {
          "internalType": "bytes32",
          "name": "",
          "type": "bytes32"
        }
      ],
      "stateMutability": "view",
      "type": "function"
    },
    {
      "inputs": [
        {
          "internalType": "bytes32",
          "name": "_paymentId",
          "type": "bytes32"
        }
      ],
      "name": "completePayment",
      "outputs": [],
      "stateMutability": "nonpayable",
      "type": "function"
    },
    {
      "inputs": [
        {
          "internalType": "address",
          "name": "_recipient",
          "type": "address"
        },
        {
          "internalType": "uint256",
          "name": "_amount",
          "type": "uint256"
        },
        {
          "internalType": "string",
          "name": "_tokenSymbol",
          "type": "string"
        },
        {
          "internalType": "uint256",
          "name": "_chainId",
          "type": "uint256"
        }
      ],
      "name": "createPayment",
      "outputs": [
        {
          "internalType": "bytes32",
          "name": "",
          "type": "bytes32"
        }
      ],
      "stateMutability": "nonpayable",
      "type": "function"
    },
    {
      "inputs": [],
      "name": "emergencyWithdraw",
      "outputs": [],
      "stateMutability": "nonpayable",
      "type": "function"
    },
    {
      "inputs": [],
      "name": "getAllPayments",
      "outputs": [
        {
          "internalType": "bytes32[]",
          "name": "",
          "type": "bytes32[]"
        }
      ],
      "stateMutability": "view",
      "type": "function"
    },
    {
      "inputs": [],
      "name": "getDemoStats",
      "outputs": [
        {
          "internalType": "uint256",
          "name": "totalPayments",
          "type": "uint256"
        },
        {
          "internalType": "uint256",
          "name": "totalUsers",
          "type": "uint256"
        },
        {
          "internalType": "address",
          "name": "contractOwner",
          "type": "address"
        },
        {
          "internalType": "uint256",
          "name": "deploymentTime",
          "type": "uint256"
        }
      ],
      "stateMutability": "view",
      "type": "function"
    },
    {
      "inputs": [
        {
          "internalType": "bytes32",
          "name": "_paymentId",
          "type": "bytes32"
        }
      ],
      "name": "getPayment",
      "outputs": [
        {
          "components": [
            {
              "internalType": "address",
              "name": "sender",
              "type": "address"
            },
            {
              "internalType": "address",
              "name": "recipient",
              "type": "address"
            },
            {
              "internalType": "uint256",
              "name": "amount",
              "type": "uint256"
            },
            {
              "internalType": "uint256",
              "name": "timestamp",
              "type": "uint256"
            },
            {
              "internalType": "string",
              "name": "status",
              "type": "string"
            },
            {
              "internalType": "string",
              "name": "tokenSymbol",
              "type": "string"
            },
            {
              "internalType": "uint256",
              "name": "chainId",
              "type": "uint256"
            }
          ],
          "internalType": "struct SimplePay.Payment",
          "name": "",
          "type": "tuple"
        }
      ],
      "stateMutability": "view",
      "type": "function"
    },
    {
      "inputs": [],
      "name": "getPaymentCount",
      "outputs": [
        {
          "internalType": "uint256",
          "name": "",
          "type": "uint256"
        }
      ],
      "stateMutability": "view",
      "type": "function"
    },
    {
      "inputs": [
        {
          "internalType": "address",
          "name": "_user",
          "type": "address"
        }
      ],
      "name": "getUserPayments",
      "outputs": [
        {
          "internalType": "bytes32[]",
          "name": "",
          "type": "bytes32[]"
        }
      ],
      "stateMutability": "view",
      "type": "function"
    },
    {
      "inputs": [
        {
          "internalType": "address",
          "name": "_user",
          "type": "address"
        }
      ],
      "name": "getUserProfile",
      "outputs": [
        {
          "components": [
            {
              "internalType": "string",
              "name": "name",
              "type": "string"
            },
            {
              "internalType": "bool",
              "name": "isRegistered",
              "type": "bool"
            },
            {
              "internalType": "uint256",
              "name": "totalSent",
              "type": "uint256"
            },
            {
              "internalType": "uint256",
              "name": "totalReceived",
              "type": "uint256"
            },
            {
              "internalType": "uint256",
              "name": "transactionCount",
              "type": "uint256"
            }
          ],
          "internalType": "struct SimplePay.UserProfile",
          "name": "",
          "type": "tuple"
        }
      ],
      "stateMutability": "view",
      "type": "function"
    },
    {
      "inputs": [],
      "name": "owner",
      "outputs": [
        {
          "internalType": "address",
          "name": "",
          "type": "address"
        }
      ],
      "stateMutability": "view",
      "type": "function"
    },
    {
      "inputs": [
        {
          "internalType": "bytes32",
          "name": "",
          "type": "bytes32"
        }
      ],
      "name": "payments",
      "outputs": [
        {
          "internalType": "address",
          "name": "sender",
          "type": "address"
        },
        {
          "internalType": "address",
          "name": "recipient",
          "type": "address"
        },
        {
          "internalType": "uint256",
          "name": "amount",
          "type": "uint256"
        },
        {
          "internalType": "uint256",
          "name": "timestamp",
          "type": "uint256"
        },
        {
          "internalType": "string",
          "name": "status",
          "type": "string"
        },
        {
          "internalType": "string",
          "name": "tokenSymbol",
          "type": "string"
        },
        {
          "internalType": "uint256",
          "name": "chainId",
          "type": "uint256"
        }
      ],
      "stateMutability": "view",
      "type": "function"
    },
    {
      "inputs": [
        {
          "internalType": "string",
          "name": "_name",
          "type": "string"
        }
      ],
      "name": "registerUser",
      "outputs": [],
      "stateMutability": "nonpayable",
      "type": "function"
    },
    {
      "inputs": [
        {
          "internalType": "address",
          "name": "",
          "type": "address"
        },
        {
          "internalType": "uint256",
          "name": "",
          "type": "uint256"
        }
      ],
      "name": "userPayments",
      "outputs": [
        {
          "internalType": "bytes32",
          "name": "",
          "type": "bytes32"
        }
      ],
      "stateMutability": "view",
      "type": "function"
    },
    {
      "inputs": [
        {
          "internalType": "address",
          "name": "",
          "type": "address"
        }
      ],
      "name": "userProfiles",
      "outputs": [
        {
          "internalType": "string",
          "name": "name",
          "type": "string"
        },
        {
          "internalType": "bool",
          "name": "isRegistered",
          "type": "bool"
        },
        {
          "internalType": "uint256",
          "name": "totalSent",
          "type": "uint256"
        },
        {
          "internalType": "uint256",
          "name": "totalReceived",
          "type": "uint256"
        },
        {
          "internalType": "uint256",
          "name": "transactionCount",
          "type": "uint256"
        }
      ],
      "stateMutability": "view",
      "type": "function"
    },
    {
      "stateMutability": "payable",
      "type": "receive"
    }
  ],
  "bytecode": "0x608060405234801561001057600080fd5b50600480546001600160a01b0319163317905561163b806100326000396000f3fe6080604052600436106100ec5760003560e01c80638da5cb5b1161008a578063c849844a11610059578063c849844a146102e0578063db2e21bc14610300578063e66eefc814610315578063f8defa3c1461034257600080fd5b80638da5cb5b14610239578063987ee156146102715780639d7dadeb1461029e578063af32a03f146102cb57600080fd5b806347ca8a8b116100c657806347ca8a8b146101a95780634d731188146101cb578063704f1b94146101f95780638cfeab351461021957600080fd5b80630716326d146100f85780633203998a14610134578063332d56d71461017857600080fd5b366100f357005b600080fd5b34801561010457600080fd5b50610118610113366004611003565b610357565b60405161012b9796959493929190611062565b60405180910390f35b34801561014057600080fd5b506101496104b1565b60405161012b949392919093845260208401929092526001600160a01b03166040830152606082015260800190565b34801561018457600080fd5b506101986101933660046110df565b61055e565b60405161012b959493929190611101565b3480156101b557600080fd5b506101c96101c4366004611003565b610619565b005b3480156101d757600080fd5b506101eb6101e63660046111db565b6107a5565b60405190815260200161012b565b34801561020557600080fd5b506101c961021436600461123a565b610a7b565b34801561022557600080fd5b506101eb610234366004611277565b610b76565b34801561024557600080fd5b50600454610259906001600160a01b031681565b6040516001600160a01b03909116815260200161012b565b34801561027d57600080fd5b5061029161028c3660046110df565b610ba7565b60405161012b91906112a1565b3480156102aa57600080fd5b506102be6102b93660046110df565b610cc3565b60405161012b91906112f3565b3480156102d757600080fd5b506003546101eb565b3480156102ec57600080fd5b506101eb6102fb366004611003565b610d2f565b34801561030c57600080fd5b506101c9610d50565b34801561032157600080fd5b50610335610330366004611003565b610dd2565b60405161012b9190611337565b34801561034e57600080fd5b506102be610fab565b600060208190529081526040902080546001820154600283015460038401546004850180546001600160a01b039586169694909516949293919261039a906113bc565b80601f01602080910402602001604051908101604052809291908181526020018280546103c6906113bc565b80156104135780601f106103e857610100808354040283529160200191610413565b820191906000526020600020905b8154815290600101906020018083116103f657829003601f168201915b505050505090806005018054610428906113bc565b80601f0160208091040260200160405190810160405280929190818152602001828054610454906113bc565b80156104a15780601f10610476576101008083540402835291602001916104a1565b820191906000526020600020905b81548152906001019060200180831161048457829003601f168201915b5050505050908060060154905087565b6000806000806000805b6003548110156105405760016000806000600385815481106104df576104df6113f6565b600091825260208083209091015483528281019390935260409182018120546001600160a01b0316845291830193909352910190206001015460ff161561052e578161052a81611422565b9250505b8061053881611422565b9150506104bb565b5060035460045490969195506001600160a01b031693504292509050565b600160205260009081526040902080548190610579906113bc565b80601f01602080910402602001604051908101604052809291908181526020018280546105a5906113bc565b80156105f25780601f106105c7576101008083540402835291602001916105f2565b820191906000526020600020905b8154815290600101906020018083116105d557829003601f168201915b50505050600183015460028401546003850154600490950154939460ff9092169390925085565b600081815260208190526040902060018101546001600160a01b031633146106795760405162461bcd60e51b815260206004820152600e60248201526d13db9b1e481c9958da5c1a595b9d60921b60448201526064015b60405180910390fd5b604080518082018252600781526670656e64696e6760c81b602090910152517fb4d829413f0d2c4d74c8ff63e02c9925119a56008208dd29db841c5f35ed3ad3906106c890600484019061143b565b60405180910390201461070b5760405162461bcd60e51b815260206004820152600b60248201526a4e6f742070656e64696e6760a81b6044820152606401610670565b60408051808201909152600981526818dbdb5c1b195d195960ba1b6020820152600482019061073a9082611500565b5060028101546001808301546001600160a01b031660009081526020919091526040812060030180549091906107719084906115c0565b909155505060405182907ff2baea2668e36a27a898b8c745decb4439ff61ae04d545dcc6954b84bd3e3c4290600090a25050565b60006001600160a01b0385166107f15760405162461bcd60e51b8152602060048201526011602482015270125b9d985b1a59081c9958da5c1a595b9d607a1b6044820152606401610670565b600084116108365760405162461bcd60e51b81526020600482015260126024820152710416d6f756e74206d757374206265203e20360741b6044820152606401610670565b6040516bffffffffffffffffffffffff1933606090811b8216602084015287901b1660348201526048810185905242606882015243608882015260009060a80160408051601f19818403018152828252805160209182012060e0840183523384526001600160a01b038a81168584019081528585018b8152426060880190815286518088018852600781526670656e64696e6760c81b818801526080890190815260a089018d905260c089018c905260008681529687905296909520875181549085166001600160a01b0319918216178255925160018201805491909516931692909217909255905160028201559151600383015591519193509060048201906109409082611500565b5060a082015160058201906109559082611500565b5060c09190910151600690910155336000818152600260208181526040808420805460018181018355918652838620018790556001600160a01b038c1685528185208054808301825590865283862001879055600380548083019091557fc2575a0e9e593c00f959f8c92f12db2869c3395a3b0502d05e2516446f71f85b0187905594845293905291812090910180548792906109f39084906115c0565b90915550503360009081526001602081905260408220600401805491929091610a1d9084906115c0565b92505081905550856001600160a01b0316336001600160a01b0316827f44cbbc7fb961794135f57c88d528ec66e19d2778920542828b70406d8d1f21df8888604051610a6a9291906115d9565b60405180910390a495945050505050565b6000815111610abc5760405162461bcd60e51b815260206004820152600d60248201526c13985b59481c995c5d5a5c9959609a1b6044820152606401610670565b6040805160a08101825282815260016020808301829052600083850181905260608401819052608084018190523381529190529190912081518190610b019082611500565b50602082015160018201805460ff19169115159190911790556040808301516002830155606083015160038301556080909201516004909101555133907f48cac28ad4dc618e15f4c2dd5e97751182f166de97b25618318b2112aa951a2f90610b6b9084906115f2565b60405180910390a250565b60026020528160005260406000208181548110610b9257600080fd5b90600052602060002001600091509150505481565b610bdb6040518060a00160405280606081526020016000151581526020016000815260200160008152602001600081525090565b6001600160a01b03821660009081526001602052604090819020815160a08101909252805482908290610c0d906113bc565b80601f0160208091040260200160405190810160405280929190818152602001828054610c39906113bc565b8015610c865780601f10610c5b57610100808354040283529160200191610c86565b820191906000526020600020905b815481529060010190602001808311610c6957829003601f168201915b5050509183525050600182015460ff1615156020820152600282015460408201526003820154606082015260049091015460809091015292915050565b6001600160a01b038116600090815260026020908152604091829020805483518184028101840190945280845260609392830182828015610d2357602002820191906000526020600020905b815481526020019060010190808311610d0f575b50505050509050919050565b60038181548110610d3f57600080fd5b600091825260209091200154905081565b6004546001600160a01b03163314610d965760405162461bcd60e51b81526020600482015260096024820152682737ba1037bbb732b960b91b6044820152606401610670565b6004546040516001600160a01b03909116904780156108fc02916000818181858888f19350505050158015610dcf573d6000803e3d6000fd5b50565b610e246040518060e0016040528060006001600160a01b0316815260200160006001600160a01b0316815260200160008152602001600081526020016060815260200160608152602001600081525090565b60008281526020818152604091829020825160e08101845281546001600160a01b0390811682526001830154169281019290925260028101549282019290925260038201546060820152600482018054919291608084019190610e86906113bc565b80601f0160208091040260200160405190810160405280929190818152602001828054610eb2906113bc565b8015610eff5780601f10610ed457610100808354040283529160200191610eff565b820191906000526020600020905b815481529060010190602001808311610ee257829003601f168201915b50505050508152602001600582018054610f18906113bc565b80601f0160208091040260200160405190810160405280929190818152602001828054610f44906113bc565b8015610f915780601f10610f6657610100808354040283529160200191610f91565b820191906000526020600020905b815481529060010190602001808311610f7457829003601f168201915b505050505081526020016006820154815250509050919050565b60606003805480602002602001604051908101604052809291908181526020018280548015610ff957602002820191906000526020600020905b815481526020019060010190808311610fe5575b5050505050905090565b60006020828403121561101557600080fd5b5035919050565b6000815180845260005b8181101561104257602081850181015186830182015201611026565b506000602082860101526020601f19601f83011685010191505092915050565b6001600160a01b03888116825287166020820152604081018690526060810185905260e06080820181905260009061109c9083018661101c565b82810360a08401526110ae818661101c565b9150508260c083015298975050505050505050565b80356001600160a01b03811681146110da57600080fd5b919050565b6000602082840312156110f157600080fd5b6110fa826110c3565b9392505050565b60a08152600061111460a083018861101c565b95151560208301525060408101939093526060830191909152608090910152919050565b634e487b7160e01b600052604160045260246000fd5b600082601f83011261115f57600080fd5b813567ffffffffffffffff8082111561117a5761117a611138565b604051601f8301601f19908116603f011681019082821181831017156111a2576111a2611138565b816040528381528660208588010111156111bb57600080fd5b836020870160208301376000602085830101528094505050505092915050565b600080600080608085870312156111f157600080fd5b6111fa856110c3565b935060208501359250604085013567ffffffffffffffff81111561121d57600080fd5b6112298782880161114e565b949793965093946060013593505050565b60006020828403121561124c57600080fd5b813567ffffffffffffffff81111561126357600080fd5b61126f8482850161114e565b949350505050565b6000806040838503121561128a57600080fd5b611293836110c3565b946020939093013593505050565b602081526000825160a060208401526112bd60c084018261101c565b90506020840151151560408401526040840151606084015260608401516080840152608084015160a08401528091505092915050565b6020808252825182820181905260009190848201906040850190845b8181101561132b5783518352928401929184019160010161130f565b50909695505050505050565b60208152600060018060a01b03808451166020840152806020850151166040840152506040830151606083015260608301516080830152608083015160e060a084015261138861010084018261101c565b905060a0840151601f198483030160c08501526113a5828261101c565b91505060c084015160e08401528091505092915050565b600181811c908216806113d057607f821691505b6020821081036113f057634e487b7160e01b600052602260045260246000fd5b50919050565b634e487b7160e01b600052603260045260246000fd5b634e487b7160e01b600052601160045260246000fd5b6000600182016114345761143461140c565b5060010190565b6000808354611449816113bc565b600182811680156114615760018114611476576114a5565b60ff19841687528215158302870194506114a5565b8760005260208060002060005b8581101561149c5781548a820152908401908201611483565b50505082870194505b50929695505050505050565b601f8211156114fb57600081815260208120601f850160051c810160208610156114d85750805b601f850160051c820191505b818110156114f7578281556001016114e4565b5050505b505050565b815167ffffffffffffffff81111561151a5761151a611138565b61152e8161152884546113bc565b846114b1565b602080601f831160018114611563576000841561154b5750858301515b600019600386901b1c1916600185901b1785556114f7565b600085815260208120601f198616915b8281101561159257888601518255948401946001909101908401611573565b50858210156115b05787850151600019600388901b60f8161c191681555b5050505050600190811b01905550565b808201808211156115d3576115d361140c565b92915050565b82815260406020820152600061126f604083018461101c565b6020815260006110fa602083018461101c56fea2646970667358221220196010ddf2fae60db6b7d55790c1483805ebe3420434248c6edae853e566181564736f6c63430008140033",
  "linkReferences": {},
  "deployedLinkReferences": {}
}